:020000040800F2
:1000000000000120D5410008753C0008813C000833
:10001000893C0008913C0008993C00080000000061
:10002000000000000000000000000000A13C0008EB
:10003000AD3C000800000000B93C0008C53C0008C9
:100040001942000819420008194200081942000824
:100050001942000819420008194200081942000814
:100060001942000819420008194200081942000804
:1000700019420008194200081942000819420008F4
:1000800019420008194200081942000819420008E4
:1000900019420008194200081942000819420008D4
:1000A00019420008194200081942000819420008C4
:1000B00019420008A13B0008194200081942000833
:1000C00019420008194200081942000819420008A4
:1000D000194200089D410008194200081942000811
:1000E0001942000819420008194200081942000884
:1000F0001942000819420008194200081942000874
:100100001942000819420008194200081942000863
:100110001942000819420008194200081942000853
:100120001942000819420008194200081942000843
:1001300000000000000000000000000000000000BF
:1001400000000000000000000000000000000000AF
:10015000000000000000000000000000000000009F
:10016000000000000000000000000000000000008F
:10017000000000000000000000000000000000007F
:10018000000000000000000000000000000000006F
:10019000000000000000000000000000000000005F
:1001A000000000000000000000000000000000004F
:1001B000000000000000000000000000000000003F
:1001C000000000000000000000000000000000002F
:1001D000000000000000000000000000000000001F
:0401E0005FF8E0F1F3
:1001E40010B5054C237833B9044B13B10448AFF36D
:1001F40000800123237010BD2C00002000000000AB
:10020400E4010008084B10B51BB108490848AFF3D6
:1002140000800848036803B910BD074B002BFBD0CE
:10022400BDE81040184700BF000000003000002067
:10023400E40100082C0000200000000080B582B01A
:1002440000AF0121482000F0D5FF2023BB801023FC
:10025400FB710323BB713B1D19460D4800F086FA60
:1002640020210B4800F09EFB2023BB801023FB7150
:100274000323BB713B1D1946064800F077FA202181
:10028400044800F08FFB00BF0837BD4680BD00BFA7
:10029400000C01400018014080B500AF154A154B11
:1002A4001B6843F0010313601249124B5A68124B46
:1002B40013404B600F4A0F4B1B6823F0847323F4E5
:1002C400803313600B4A0B4B1B6823F480231360A9
:1002D400084A084B5B6823F4FE035360054B4FF454
:1002E4001F029A6000F078F8044B4FF000629A60A5
:1002F40000BF80BD001002400000FFF800ED00E0E8
:1003040080B485B000AF0023FB600023BB600023F2
:100314007B602C4B5B6803F00C03FB60FB68042BD5
:1003240007D0082B09D0002B33D1274B274A1A605A
:1003340033E0254B254A1A602FE0224B5B6803F417
:100344007013BB601F4B5B6803F480337B60BB6836
:100354009B0C0233BB607B68002B06D1BB681C4A34
:1003640002FB03F3184A136017E0164B5B6803F4AF
:100374000033002B06D0BB68154A02FB03F3124A74
:1003840013600AE0BB68114A02FB03F30E4A1360D0
:1003940003E00D4B0D4A1A6000BF0A4B5B6803F083
:1003A400F0031B090B4AD35CDBB2FB60064B1A68F3
:1003B400FB6822FA03F3044A136000BF1437BD46F6
:1003C40080BC7047001002400000002000127A0038
:1003D40000093D000400002080B500AF00F002F8E1
:1003E40000BF80BD80B483B000AF00237B600023D6
:1003F4003B603A4A394B1B6843F480331360374BF4
:100404001B6803F400333B607B6801337B603B680B
:10041400002B03D17B68B3F5A06FF0D12F4B1B6881
:1004240003F40033002B02D001233B6001E00023DE
:100434003B603B68012B4BD1294A294B1B6843F095
:1004440010031360264A264B1B6823F00303136032
:10045400234A234B1B6843F0020313601F4A1F4BBC
:100464005B6853601D4A1D4B5B6853601B4A1B4B02
:100474005B6843F480635360184A184B5B6823F449
:100484007C135360154A154B5B6843F4E8135360BF
:10049400124A124B1B6843F08073136000BF0F4B6A
:1004A4001B6803F00073002BF9D00C4A0B4B5B68FC
:1004B40023F003035360094A084B5B6843F00203CB
:1004C400536000BF054B5B6803F00C03082BF9D1A4
:1004D40000BF0C37BD4680BC704700BF001002400F
:1004E4000020024080B483B000AF7860054A7B6886
:1004F40043F0BF6343F40033D36000BF0C37BD4601
:1005040080BC704700ED00E080B487B000AF786035
:1005140000237B6100233B610F23FB607B68DB7856
:10052400002B3AD0274BDB68DB4303F4E0631B0A60
:100534007B617B69C3F104033B61FA687B6922FA3E
:1005440003F3FB607B685B781A463B6902FA03F3AA
:100554007B617B689B781A46FB6813407A69134376
:100564007B617B691B017B61174A7B681B78796916
:10057400C9B213440A4683F80023134A7B681B78E4
:100584005B09DBB218467B681B7803F01F0301216B
:1005940001FA03F342F820300FE00B497B681B7823
:1005A4005B09DBB218467B681B7803F01F0301224A
:1005B4009A4000F1200341F8232000BF1C37BD46B8
:1005C40080BC704700ED00E000E100E080B483B03F
:1005D40000AF7860396007493B6823F0604323F03B
:1005E4007F037A6813438B6000BF0C37BD4680BC21
:1005F400704700BF00ED00E080B483B000AF034655
:100604000A46FB711346BB71BB79002B06D009491E
:10061400084B1A69FB7913430B6106E00549054B46
:100624001A69FB79DB4313400B6100BF0C37BD46ED
:1006340080BC704700ED00E080B483B000AF786008
:100644007B68042B06D1094A084B1B6843F004035A
:10065400136005E0054A054B1B6823F0040313608F
:1006640000BF0C37BD4680BC704700BF10E000E0FF
:1006740080B582B000AF78607B682F4A934208D17E
:100684000121042000F0F2FD0021042000F0EEFD21
:100694004EE07B68294A934208D10121082000F0EA
:1006A400E5FD0021082000F0E1FD41E07B68244ADB
:1006B400934208D10121102000F0D8FD0021102020
:1006C40000F0D4FD34E07B681E4A934208D1012136
:1006D400202000F0CBFD0021202000F0C7FD27E002
:1006E4007B68194A934208D10121402000F0BEFDE5
:1006F4000021402000F0BAFD1AE07B68134A9342BF
:1007040008D10121802000F0B1FD0021802000F0FB
:10071400ADFD0DE07B680E4A934209D101214FF4EF
:10072400807000F0A3FD00214FF4807000F09EFD66
:1007340000BF0837BD4680BD00080140000C0140E1
:10074400001001400014014000180140001C014049
:100754000020014080B500AF0121012000F086FD9A
:100764000021012000F082FD00BF80BD80B489B06B
:1007740000AF786039600023FB6100233B610023F4
:10078400BB610023FB6000237B610023BB603B68EB
:10079400DB7803F00F03FB613B68DB7803F01003A5
:1007A400002B05D03B689B781A46FB691343FB6119
:1007B4003B681B88DBB2002B44D07B681B687B61E1
:1007C4000023BB6138E00122BB6902FA03F3FB603A
:1007D4003B681B881A46FB6813403B613A69FB6817
:1007E4009A4226D1BB699B00FB600F22FB6802FA88
:1007F40003F3BB60BB68DB437A6913407B61FA692E
:10080400FB6802FA03F37A6913437B613B68DB7884
:10081400282B05D10122BB699A407B685A6108E004
:100824003B68DB78482B04D10122BB699A407B6882
:100834001A61BB690133BB61BB69072BC3D97B68F0
:100844007A691A603B681B88FF2B46D97B685B6812
:100854007B610023BB613AE0BB690833012202FAE1
:1008640003F3FB603B681B881A46FB6813403B613B
:100874003A69FB689A4227D1BB699B00FB600F224F
:10088400FB6802FA03F3BB60BB68DB437A6913407D
:100894007B61FA69FB6802FA03F37A6913437B61AB
:1008A4003B68DB78282B05D1BB69083301229A40C9
:1008B4007B685A613B68DB78482B05D1BB690833F8
:1008C40001229A407B681A61BB690133BB61BB6931
:1008D400072BC1D97B687A695A6000BF2437BD46AB
:1008E40080BC704780B483B000AF78607B684FF6FB
:1008F400FF721A807B6802229A707B680422DA7085
:1009040000BF0C37BD4680BC704700BF80B485B0C3
:1009140000AF78600B467B800023FB737B689A688A
:100924007B881340002B02D00123FB7301E00023DA
:10093400FB73FB7B18461437BD4680BC704700BF71
:1009440080B483B000AF78607B689B689BB2184624
:100954000C37BD4680BC704780B485B000AF78606A
:100964000B467B800023FB737B68DA687B8813402B
:10097400002B02D00123FB7301E00023FB73FB7BFC
:1009840018461437BD4680BC704700BF80B483B09E
:1009940000AF78607B68DB689BB218460C37BD46B5
:1009A40080BC704780B483B000AF78600B467B8016
:1009B4007A887B681A6100BF0C37BD4680BC7047DB
:1009C40080B483B000AF78600B467B807A887B6804
:1009D4005A6100BF0C37BD4680BC704780B483B0F9
:1009E40000AF78600B467B8013467B707B78002BCE
:1009F40003D07A887B681A6102E07A887B685A613E
:100A040000BF0C37BD4680BC704700BF80B483B0C4
:100A140000AF78600B467B807A887B68DA6000BF21
:100A24000C37BD4680BC704780B485B000AF786099
:100A34000B467B804FF48033FB607B88FA6813435A
:100A4400FB607B68FA689A617A887B689A617B6844
:100A5400FA689A617B689B69FB607B689B69FB60B1
:100A640000BF1437BD4680BC704700BF80B485B05A
:100A740000AF03460A46FB711346BB710023FB60BB
:100A84000C4B1B68FB60FA684FF680731340FB60E5
:100A9400FB791B01FA681343FB60BB79FA681343C3
:100AA400FB60044AFB68136000BF1437BD4680BC7A
:100AB400704700BF0000014080B483B000AF03461C
:100AC400FB71044AFB79136000BF0C37BD4680BC40
:100AD400704700BF1C00204280B487B000AF78602C
:100AE4000B46FB7000233B610023FB6000237B610A
:100AF4000023BB607B68002B03DA2E4BDB697B6130
:100B040002E02C4B5B687B617B681B0C03F00F03DA
:100B1400BB607B689BB23B617B6803F44013B3F515
:100B2400401F0AD17B6923F070637B61214A214B0A
:100B34005B6823F07063536021E07B6803F48013E7
:100B4400002B0ED00322BB6802FA03F3FB60FB68A0
:100B5400DB437A6913407B617B6943F070637B619B
:100B64000DE07B685B0D1B013A6902FA03F3DB437A
:100B74007A6913407B617B6943F070637B61FB7826
:100B8400002B08D07B685B0D1B013A6902FA03F362
:100B94007A6913437B617B68002B03DA054A7B691E
:100BA400D36102E0034A7B69536000BF1C37BD4632
:100BB40080BC70470000014090B484B000AF03468D
:100BC4000A46FB711346BB710023FB60BB7903F03B
:100BD40003039B000F2202FA03F3FB601649BB795F
:100BE4009B08DBB21846144ABB799B08DBB202337C
:100BF40052F82320FB68DB431A40831C41F823206E
:100C04000D48BB799B08DBB21C460B4ABB799B0899
:100C1400DBB2023352F82320F979BB7903F00303E2
:100C24009B0001FA03F31A43A31C40F8232000BFDE
:100C34001037BD4690BC70470000014080B483B0BB
:100C440000AF7860034A7B68136000BF0C37BD4671
:100C540080BC7047DC00204280B400AF134A134BC1
:100C64001B6843F0010313601049104B5A68104B82
:100C740013404B600D4A0D4B1B6823F0847323F41F
:100C840080331360094A094B1B6823F480231360E3
:100C9400064A064B5B6823F4FE035360034B4FF490
:100CA4001F029A6000BFBD4680BC7047001002401E
:100CB4000000FFF880B483B000AF7860134A134B90
:100CC4001B6823F480331360104A104B1B6823F411
:100CD400802313607B68B3F5803F03D0B3F5802F86
:100CE40007D00DE0094A094B1B6843F480331360B5
:100CF40006E0064A054B1B6843F4A023136000BFBB
:100D040000BF0C37BD4680BC704700BF00100240D6
:100D140080B582B000AF00233B600023FB71002349
:100D2400BB71312000F00EFB0346BB713B680133FD
:100D34003B603B68B3F5A06F02D0BB79002BF0D0C9
:100D4400312000F0FFFA0346002B02D00123FB718F
:100D540001E00023FB71FB7918460837BD4680BDCE
:100D640080B485B000AF0346FB710023FB600A4BDF
:100D74001B68FB60FB6823F0F803FB60FB79DB0076
:100D8400FA681343FB60044AFB68136000BF14371E
:100D9400BD4680BC704700BF0010024080B483B0E1
:100DA40000AF0346FB71044AFB79136000BF0C37A4
:100DB400BD4680BC704700BF0000424280B485B08D
:100DC40000AF786039600023FB600A4B5B68FB600E
:100DD400FB6823F47C13FB607A683B681343FA686E
:100DE4001343FB60034AFB68536000BF1437BD46DE
:100DF40080BC70470010024080B483B000AF03464B
:100E0400FB71044AFB79136000BF0C37BD4680BCFC
:100E1400704700BF6000424280B485B000AF786084
:100E24000023FB60094B5B68FB60FB6823F0030352
:100E3400FB60FA687B681343FB60044AFB685360F9
:100E440000BF1437BD4680BC704700BF001002408D
:100E540080B400AF044B5B68DBB203F00C03DBB27D
:100E64001846BD4680BC70470010024080B485B06F
:100E740000AF78600023FB60094B5B68FB60FB6894
:100E840023F0F003FB60FA687B681343FB60044AB9
:100E9400FB68536000BF1437BD4680BC704700BF79
:100EA4000010024080B485B000AF78600023FB607E
:100EB400094B5B68FB60FB6823F4E063FB60FA6842
:100EC4007B681343FB60044AFB68536000BF14371C
:100ED400BD4680BC704700BF0010024080B485B09E
:100EE40000AF78600023FB60094B5B68FB60FB6824
:100EF40023F46053FB607B68DB00FA681343FB60F8
:100F0400034AFB68536000BF1437BD4680BC70477A
:100F14000010024080B483B000AF03460A46FB7160
:100F24001346BB71BB79002B08D00C490B4B1B78C3
:100F3400DAB2FB791343DBB20B7009E00749074BC4
:100F44001B78DAB2FB79DB43DBB21340DBB20B7004
:100F540000BF0C37BD4680BC704700BF091002407B
:100F640080B483B000AF7860034A7B68136000BF2D
:100F74000C37BD4680BC7047D800424280B485B06F
:100F840000AF78600023FB60094B5B68FB60FB6883
:100F940023F44043FB60FA687B681343FB60044A14
:100FA400FB68536000BF1437BD4680BC704700BF68
:100FB4000010024080B483B000AF0346FB710C4BB9
:100FC40000221A700A4B00221A70FB79012B02D0FE
:100FD400042B04D007E0064B01221A7003E0044BF3
:100FE40005221A7000BF00BF0C37BD4680BC704795
:100FF4002010024080B483B000AF0346FB71044A62
:10100400FB79136000BF0C37BD4680BC704700BF3E
:101014008004424280B483B000AF78600549054B38
:101024001A6A7B6813430B6200BF0C37BD4680BC51
:10103400704700BF0010024080B483B000AF034685
:10104400FB71044AFB79136000BF0C37BD4680BCBA
:10105400704700BF3C04424280B487B000AF786060
:1010640000237B6100233B610023FB600023BB6002
:101074004C4B5B6803F00C037B617B69042B07D04A
:10108400082B09D0002B33D17B68474A1A6033E020
:101094007B68454A1A602FE0424B5B6803F4701387
:1010A4003B61404B5B6803F48033FB603B699B0C02
:1010B40002333B61FB68002B06D13B693B4A02FBD0
:1010C40003F27B681A6017E0364B5B6803F4003365
:1010D400002B06D03B69354A02FB03F27B681A6099
:1010E4000AE03B69304A02FB03F27B681A6003E0C2
:1010F4007B682D4A1A6000BF2A4B5B6803F0F0033B
:101104007B617B691B097B61294A7B6913441B78DA
:10111400DBB2BB607B681A68BB68DA407B685A60E4
:10112400204B5B6803F4E0637B617B691B0A7B6192
:101134001F4A7B6913441B78DBB2BB607B685A6827
:10114400BB68DA407B689A60164B5B6803F46053B3
:101154007B617B69DB0A7B61154A7B6913441B78DD
:10116400DBB2BB607B685A68BB68DA407B68DA60D4
:101174000C4B5B6803F440437B617B699B0B7B6195
:101184000C4A7B6913441B78DBB2BB607B68DA686A
:10119400BB68B2FBF3F27B681A6100BF1C37BD4623
:1011A40080BC70470010024000127A0000093D0024
:1011B400140000202400002080B483B000AF7860C5
:1011C4000B46FB70FB78002B06D00949084B5A6983
:1011D4007B6813434B6106E00549054B5A697B68FC
:1011E400DB4313404B6100BF0C37BD4680BC7047E6
:1011F4000010024080B483B000AF78600B46FB70EF
:10120400FB78002B06D00949084B9A697B68134385
:101214008B6106E00549054B9A697B68DB43134003
:101224008B6100BF0C37BD4680BC70470010024084
:1012340080B483B000AF78600B46FB70FB78002B62
:1012440006D00949084BDA697B681343CB6106E091
:101254000549054BDA697B68DB431340CB6100BF6A
:101264000C37BD4680BC70470010024080B483B088
:1012740000AF78600B46FB70FB78002B06D0094961
:10128400084BDA687B681343CB6006E00549054BDD
:10129400DA687B68DB431340CB6000BF0C37BD4684
:1012A40080BC70470010024080B483B000AF786007
:1012B4000B46FB70FB78002B06D00949084B1A69D2
:1012C4007B6813430B6106E00549054B1A697B688B
:1012D400DB4313400B6100BF0C37BD4680BC704735
:1012E4000010024080B483B000AF0346FB71044A8F
:1012F400FB79136000BF0C37BD4680BC704700BF4C
:101304004004424280B483B000AF0346FB71044AF8
:10131400FB79136000BF0C37BD4680BC704700BF2B
:101324004C00424280B483B000AF0346FB71044AD0
:10133400FB79137000BF0C37BD4680BC704700BFFB
:101344000710024080B487B000AF0346FB7100234E
:10135400FB6000237B610023FB74FB795B09DBB238
:10136400FB60FB68012B03D1124B1B687B6109E016
:10137400FB68022B03D10F4B1B6A7B6102E00D4B10
:101384005B6A7B61FB7903F01F03FB607A69FB688E
:1013940022FA03F303F00103002B02D00123FB74B0
:1013A40001E00023FB74FB7C18461C37BD4680BC5F
:1013B400704700BF0010024080B400AF044A044BE1
:1013C4005B6A43F08073536200BFBD4680BC7047C4
:1013D4000010024080B485B000AF0346FB710023C7
:1013E400FB73084B9A68FB791340002B02D001234E
:1013F400FB7301E00023FB73FB7B18461437BD46E7
:1014040080BC70470010024080B483B000AF034634
:10141400FB71044AFB79137000BF0C37BD4680BCD6
:10142400704700BF0A10024080B582B000AF7860F8
:101434007B68784A93420AD101214FF40060FFF798
:1014440015FF00214FF40060FFF710FFDEE07B681A
:10145400B3F1804F08D101210120FFF725FF0021BE
:101464000120FFF721FFD1E07B686B4A934208D14A
:1014740001210220FFF718FF00210220FFF714FFCB
:10148400C4E07B68654A934208D101210420FFF738
:101494000BFF00210420FFF707FFB7E07B68604AD9
:1014A400934208D101210820FFF7FEFE0021082005
:1014B400FFF7FAFEAAE07B685A4A934208D1012159
:1014C4001020FFF7F1FE00211020FFF7EDFE9DE054
:1014D4007B68554A934208D101212020FFF7E4FE9E
:1014E40000212020FFF7E0FE90E07B684F4A934202
:1014F4000AD101214FF40050FFF7B8FE00214FF448
:101504000050FFF7B3FE81E07B68494A93420AD159
:1015140001214FF40020FFF7A9FE00214FF4002021
:10152400FFF7A4FE72E07B68424A93420AD101218C
:101534004FF48010FFF79AFE00214FF48010FFF75C
:1015440095FE63E07B683C4A93420AD101214FF443
:101554000010FFF78BFE00214FF40010FFF786FE0A
:1015640054E07B68354A934208D101214020FFF7BB
:101574009BFE00214020FFF797FE47E07B68304A3E
:10158400934208D101218020FFF78EFE00218020A4
:10159400FFF78AFE3AE07B682A4A93420AD1012186
:1015A4004FF48070FFF780FE00214FF48070FFF746
:1015B4007BFE2BE07B68244A93420AD101214FF43D
:1015C4008030FFF753FE00214FF48030FFF74EFECA
:1015D4001CE07B681D4A93420AD101214FF400307C
:1015E400FFF744FE00214FF40030FFF73FFE0DE00B
:1015F4007B68174A934209D101214FF48020FFF7F9
:1016040035FE00214FF48020FFF730FE00BF08377D
:10161400BD4680BD002C014000040040000800408D
:10162400000C004000100040001400400034014051
:10163400004C01400050014000540140001800409B
:10164400001C0040002000400040014000440140D4
:101654000048014080B485B000AF78603960002351
:10166400FB817B681B88FB817B682E4A934213D0E5
:101674007B682D4A93420FD07B68B3F1804F0BD027
:101684007B682A4A934207D07B68294A934203D055
:101694007B68284A934208D1FB8923F07003FB81BD
:1016A4003B685A88FB891343FB817B68224A934237
:1016B4000CD07B68214A934208D0FB8923F4407301
:1016C400FB813B68DA88FB891343FB817B68FA89D9
:1016D4001A803B689A887B689A853B681A887B687D
:1016E4001A857B680F4A93420FD07B680E4A934257
:1016F4000BD07B68124A934207D07B68114A93420D
:1017040003D07B68104A934204D13B681B7A9AB297
:101714007B681A867B6801229A8200BF1437BD4613
:1017240080BC7047002C014000340140000400409C
:1017340000080040000C004000100040001400406D
:1017440000400140004401400048014080B485B09D
:1017540000AF7860396000237B810023FB81002384
:10176400BB817B681B8C9BB223F001039AB27B681C
:101774001A847B681B8CFB817B689B88BB817B689C
:101784001B8B7B817B8923F070037B817B8923F016
:1017940003037B813B681A887B8913437B81FB8924
:1017A40023F00203FB813B681A89FB891343FB8105
:1017B4003B685A88FB891343FB817B68244A934224
:1017C4000FD07B68234A93420BD07B68224A934212
:1017D40007D07B68214A934203D07B68204A934216
:1017E40023D1FB8923F00803FB813B685A89FB89D9
:1017F4001343FB81FB8923F00403FB813B689A8834
:10180400FB891343FB81BB8923F48073BB81BB89B0
:1018140023F40073BB813B689A89BB891343BB8162
:101824003B68DA89BB891343BB817B68BA899A8098
:101834007B687A891A833B68DA887B689A867B6836
:10184400FA891A8400BF1437BD4680BC704700BFB4
:10185400002C01400034014000400140004401409C
:101864000048014080B485B000AF7860396000233F
:101874007B810023FB810023BB817B681B8C9BB293
:1018840023F010039AB27B681A847B681B8CFB815B
:101894007B689B88BB817B681B8B7B817B8923F462
:1018A400E0437B817B8923F440737B813B681B8805
:1018B4001B029AB27B8913437B81FB8923F02003AB
:1018C400FB813B681B891B019AB2FB891343FB8193
:1018D4003B685B881B019AB2FB891343FB817B68DD
:1018E400224A934203D07B68214A93422BD1FB893D
:1018F40023F08003FB813B685B891B019AB2FB895F
:101904001343FB81FB8923F04003FB813B689B88E5
:101914001B019AB2FB891343FB81BB8923F48063C7
:10192400BB81BB8923F40063BB813B689B899B001B
:101934009AB2BB891343BB813B68DB899B009AB293
:10194400BB891343BB817B68BA899A807B687A8997
:101954001A833B68DA887B681A877B68FA891A8459
:1019640000BF1437BD4680BC704700BF002C014047
:101974000034014080B485B000AF78603960002342
:101984007B810023FB810023BB817B681B8C9BB282
:1019940023F480739AB27B681A847B681B8CFB8166
:1019A4007B689B88BB817B689B8B7B817B8923F0D5
:1019B40070037B817B8923F003037B813B681A8856
:1019C4007B8913437B81FB8923F40073FB813B6890
:1019D4001B891B029AB2FB891343FB813B685B881A
:1019E4001B029AB2FB891343FB817B68224A934210
:1019F40003D07B68214A93422BD1FB8923F40063F3
:101A0400FB813B685B891B029AB2FB891343FB8110
:101A1400FB8923F48063FB813B689B881B029AB299
:101A2400FB891343FB81BB8923F48053BB81BB89AE
:101A340023F40053BB813B689B891B019AB2BB8989
:101A44001343BB813B68DB891B019AB2BB891343F7
:101A5400BB817B68BA899A807B687A899A833B6860
:101A6400DA887B689A877B68FA891A8400BF1437FE
:101A7400BD4680BC704700BF002C014000340140CB
:101A840080B485B000AF786039600023BB81002347
:101A94007B810023FB817B681B8C9BB223F48053E6
:101AA4009AB27B681A847B681B8C7B817B689B88D9
:101AB400FB817B689B8BBB81BB8923F4E043BB81A7
:101AC400BB8923F44073BB813B681B881B029AB219
:101AD400BB891343BB817B8923F400537B813B681F
:101AE4001B891B039AB27B8913437B813B685B8808
:101AF4001B039AB27B8913437B817B68124A93420E
:101B040003D07B68114A93420AD1FB8923F48043B2
:101B1400FB813B689B899B019AB2FB891343FB8140
:101B24007B68FA899A807B68BA899A833B68DA88E9
:101B34007B68A3F840207B687A891A8400BF143735
:101B4400BD4680BC704700BF002C014000340140FA
:101B540080B582B000AF786039603B681B88002B89
:101B64000FD13B6859883B689A883B681B89786821
:101B740001F080F93B68DB881946786801F03AF88F
:101B840036E03B681B88042B0FD13B6859883B68BF
:101B94009A883B681B89786801F0DCF93B68DB882C
:101BA4001946786801F042F822E03B681B88082B4C
:101BB4000FD13B6859883B689A883B681B897868D1
:101BC40001F042FA3B68DB881946786801F04CF86A
:101BD4000EE03B6859883B689A883B681B897868A3
:101BE40001F0A8FA3B68DB881946786801F058F8D8
:101BF40000BF0837BD4680BD80B584B000AF7860B3
:101C040039600023FB810123BB813B685B88002B87
:101C140002D10223FB8101E00023FB813B689B8806
:101C2400012B02D10223BB8101E00123BB813B686C
:101C34001B88002B1CD13B6859883B689A883B68F9
:101C44001B89786801F016F93B68DB8819467868C7
:101C540000F0D0FF3B681B89BA89F989786801F0E4
:101C640079F93B68DB881946786800F0DFFF1BE0F0
:101C74003B6859883B689A883B681B89786801F0FF
:101C840069F93B68DB881946786800F0CFFF3B6848
:101C94001B89BA89F989786801F0ECF83B68DB881C
:101CA4001946786800F0A6FF00BF1037BD4680BD16
:101CB40080B483B000AF786039603B681A883B68B1
:101CC4005B8813439AB23B689B8813439AB23B6880
:101CD400DB8813439AB23B681B8913439AB23B686F
:101CE4005B8913439AB23B689B8913439AB27B681E
:101CF400A3F8442000BF0C37BD4680BC704700BF2A
:101D040080B483B000AF78607B684FF6FF729A802E
:101D14007B6800221A807B680022DA807B680022BC
:101D24005A807B6800221A7200BF0C37BD4680BC03
:101D3400704700BF80B483B000AF78607B68002236
:101D44001A807B6800225A807B6800229A807B6814
:101D54000022DA807B6800221A817B6800225A8183
:101D64007B6800229A817B680022DA8100BF0C37ED
:101D7400BD4680BC704700BF80B483B000AF7860BC
:101D84007B6800221A807B6800225A807B680122CB
:101D94009A807B680022DA807B6800221A8100BF67
:101DA4000C37BD4680BC704780B483B000AF786008
:101DB4007B6800221A807B6800225A807B6800229C
:101DC4009A807B680022DA807B6800221A817B6813
:101DD40000225A817B6800229A8100BF0C37BD46DD
:101DE40080BC704780B483B000AF78600B46FB7052
:101DF400FB78002B08D07B681B889BB243F001035F
:101E04009AB27B681A8007E07B681B889BB223F038
:101E140001039AB27B681A8000BF0C37BD4680BCB0
:101E2400704700BF80B483B000AF78600B46FB708E
:101E3400FB78002B0CD07B68B3F844309BB26FEA7C
:101E440043436FEA53439AB27B68A3F8442009E002
:101E54007B68B3F844309BB2C3F30E039AB27B6839
:101E6400A3F8442000BF0C37BD4680BC704700BFB8
:101E740080B483B000AF78600B467B8013467B70E0
:101E84007B78002B08D07B689B899AB27B881343AC
:101E94009AB27B689A8109E07B689B899AB27B88B5
:101EA400DB439BB213409AB27B689A8100BF0C3724
:101EB400BD4680BC704700BF80B483B000AF78607B
:101EC4000B467B807B687A889A8200BF0C37BD46BC
:101ED40080BC704780B483B000AF78600B467B80D1
:101EE40013463B807A883B8813439AB27B68A3F8F5
:101EF400482000BF0C37BD4680BC704780B483B017
:101F040000AF78600B467B8013467B707B78002B98
:101F140008D07B689B899AB27B8813439AB27B680A
:101F24009A8109E07B689B899AB27B88DB439BB2E8
:101F340013409AB27B689A8100BF0C37BD4680BCBF
:101F4400704700BF80B483B000AF78607B681B89A2
:101F54009BB223F007039AB27B681A8100BF0C3747
:101F6400BD4680BC704700BF80B582B000AF7860CA
:101F74000B467B807B881946786800F0E5F87B681F
:101F84001B899BB243F007039AB27B681A8100BF96
:101F94000837BD4680BD00BF80B584B000AFF8608F
:101FA400084611461A4603467B810B463B8113467D
:101FB400FB807B89602B06D1FB8839890122F86874
:101FC40000F0C8FF05E0FB8839890122F86800F0B9
:101FD40051FF7B891946F86800F0B6F8FB681B8945
:101FE4009BB243F007039AB2FB681A8100BF103713
:101FF400BD4680BD80B586B000AFF8600846114686
:102004001A4603467B810B463B811346FB80002323
:10201400FB82FB883A897989F86800F03BF8FB6811
:102024001B89FB82FB8A23F00703FB82FB8A43F0B4
:102034000703FB82FB8A23F07003FB82FB8A43F0D5
:102044007003FB82FB68FA8A1A8100BF1837BD4609
:1020540080BD00BF80B584B000AFF860084611466B
:102064001A4603467B810B463B811346FB80FB8863
:102074003A897989F86800F00DF8FB681B899BB2EE
:1020840043F480439AB2FB681A8100BF1037BD46FF
:1020940080BD00BF80B487B000AFF8600846114629
:1020A4001A4603467B810B463B811346FB80002383
:1020B400FB82FB681B89FB82FB8ADBB2FB82FB8809
:1020C4001B029AB23B8913439AB27B8913439AB297
:1020D400FB8A1343FB82FB68FA8A1A8100BF1C3710
:1020E400BD4680BC704700BF80B483B000AF786049
:1020F4000B467B8013463B807B687A881A857B6815
:102104003A889A8200BF0C37BD4680BC704700BF36
:1021140080B485B000AF78600B467B800023FB81E0
:102124007B681B88FB81FB8923F07003FB81FA89A0
:102134007B881343FB817B68FA891A8000BF1437BC
:10214400BD4680BC704700BF80B485B000AF7860E6
:102154000B467B800023FB817B681B89FB81FB8909
:1021640023F07003FB81FA897B881343FB817B682E
:10217400FA891A8100BF1437BD4680BC704700BF7E
:1021840080B487B000AFF860084611461A4603468B
:102194007B810B463B811346FB800023FB8200239B
:1021A400BB8200237B82FB681B89FB82FB681B8B41
:1021B400BB82FB681B8C7B82FB8A23F00703FB82B8
:1021C400FA8A7B891343FB82BB8A23F4407323F08E
:1021D4000303BB82BB8A43F4807343F00103BB82D5
:1021E4007B8A23F022037B82FB881B019AB23B8902
:1021F40013439AB27B8A13437B82FB68FA8A1A815F
:10220400FB68BA8A1A83FB687A8A1A8400BF1C376F
:10221400BD4680BC704700BF80B485B000AF786015
:102224000B467B800023FB817B681B8BFB81FB8936
:1022340023F07003FB81FA897B881343FB817B685D
:10224400FA891A8300BF1437BD4680BC704700BFAB
:1022540080B485B000AF78600B467B800023FB819F
:102264007B681B8BFB81FB8923F4E043FB817B8828
:102274001B029AB2FB891343FB817B68FA891A8398
:1022840000BF1437BD4680BC704700BF80B485B022
:1022940000AF78600B467B800023FB817B689B8BBF
:1022A400FB81FB8923F07003FB81FA897B8813434C
:1022B400FB817B68FA899A8300BF1437BD4680BCD2
:1022C400704700BF80B485B000AF78600B467B8058
:1022D4000023FB817B689B8BFB81FB8923F4E04318
:1022E400FB817B881B029AB2FB891343FB817B68C9
:1022F400FA899A8300BF1437BD4680BC704700BF7B
:1023040080B483B000AF78600B46FB70FB78002B81
:1023140008D07B681B889BB243F080039AB27B6829
:102324001A8007E07B681B889BB223F080039AB273
:102334007B681A8000BF0C37BD4680BC704700BF65
:1023440080B483B000AF78600B46FB70FB78002B41
:1023540008D07B689B889BB243F004039AB27B68E5
:102364009A8007E07B689B889BB223F004039AB2AF
:102374007B689A8000BF0C37BD4680BC704700BFA5
:1023840080B483B000AF78600B46FB70FB78002B01
:1023940008D07B689B889BB243F008039AB27B68A1
:1023A4009A8007E07B689B889BB223F008039AB26B
:1023B4007B689A8000BF0C37BD4680BC704700BF65
:1023C40080B483B000AF78600B46FB70FB78002BC1
:1023D40008D07B689B889BB243F001039AB27B6868
:1023E4009A8007E07B689B889BB223F001039AB232
:1023F4007B689A8000BF0C37BD4680BC704700BF25
:1024040080B485B000AF78600B467B800023FB81ED
:102414007B681B8BFB81FB8923F00803FB81FA8912
:102424007B881343FB817B68FA891A8300BF1437C6
:10243400BD4680BC704700BF80B485B000AF7860F3
:102444000B467B800023FB817B681B8BFB81FB8914
:1024540023F40063FB817B881B029AB2FB8913433C
:10246400FB817B68FA891A8300BF1437BD4680BCA0
:10247400704700BF80B485B000AF78600B467B80A6
:102484000023FB817B689B8BFB81FB8923F0080382
:10249400FB81FA897B881343FB817B68FA899A83E1
:1024A40000BF1437BD4680BC704700BF80B485B000
:1024B40000AF78600B467B800023FB817B689B8B9D
:1024C400FB81FB8923F40063FB817B881B029AB2A6
:1024D400FB891343FB817B68FA899A8300BF143715
:1024E400BD4680BC704700BF80B485B000AF786043
:1024F4000B467B800023FB817B681B8BFB81FB8964
:1025040023F00403FB81FA897B881343FB817B68F6
:10251400FA891A8300BF1437BD4680BC704700BFD8
:1025240080B485B000AF78600B467B800023FB81CC
:102534007B681B8BFB81FB8923F48063FB817B8895
:102544001B029AB2FB891343FB817B68FA891A83C5
:1025540000BF1437BD4680BC704700BF80B485B04F
:1025640000AF78600B467B800023FB817B689B8BEC
:10257400FB81FB8923F00403FB81FA897B881343E5
:10258400FB817B68FA899A8300BF1437BD4680BCFF
:10259400704700BF80B485B000AF78600B467B8085
:1025A4000023FB817B689B8BFB81FB8923F4806385
:1025B400FB817B881B029AB2FB891343FB817B68F6
:1025C400FA899A8300BF1437BD4680BC704700BFA8
:1025D40080B485B000AF78600B467B800023FB811C
:1025E4007B681B8BFB81FB8923F08003FB81FA89C9
:1025F4007B881343FB817B68FA891A8300BF1437F5
:10260400BD4680BC704700BF80B485B000AF786021
:102614000B467B800023FB817B681B8BFB81FB8942
:10262400C3F30E03FB817B881B029AB2FB8913431D
:10263400FB817B68FA891A8300BF1437BD4680BCCE
:10264400704700BF80B485B000AF78600B467B80D4
:102654000023FB817B689B8BFB81FB8923F0800338
:10266400FB81FA897B881343FB817B68FA899A830F
:1026740000BF1437BD4680BC704700BF80B485B02E
:1026840000AF78600B467B800023FB817B689B8BCB
:10269400FB81FB89C3F30E03FB817B881B029AB287
:1026A400FB891343FB817B68FA899A8300BF143743
:1026B400BD4680BC704700BF80B485B000AF786071
:1026C4000B467B800023FB817B681B8CFB81FB8991
:1026D40023F00203FB81FA897B881343FB817B6827
:1026E400FA891A8400BF1437BD4680BC704700BF06
:1026F40080B485B000AF78600B467B800023FB81FB
:102704007B681B8CFB81FB8923F00803FB81FA891E
:102714007B881343FB817B68FA891A8400BF1437D2
:10272400BD4680BC704700BF80B485B000AF786000
:102734000B467B800023FB817B681B8CFB81FB8920
:1027440023F02003FB817B881B019AB2FB8913438E
:10275400FB817B68FA891A8400BF1437BD4680BCAC
:10276400704700BF80B485B000AF78600B467B80B3
:102774000023FB817B681B8CFB81FB8923F0800396
:10278400FB817B881B019AB2FB891343FB817B6825
:10279400FA891A8400BF1437BD4680BC704700BF55
:1027A40080B485B000AF78600B467B800023FB814A
:1027B4007B681B8CFB81FB8923F40073FB817B8882
:1027C4001B029AB2FB891343FB817B68FA891A8442
:1027D40000BF1437BD4680BC704700BF80B485B0CD
:1027E40000AF78600B467B800023FB817B681B8CE9
:1027F400FB81FB8923F40063FB817B881B029AB273
:10280400FB891343FB817B68FA891A8400BF143760
:10281400BD4680BC704700BF80B485B000AF78600F
:102824000B467B800023FB817B681B8CFB81FB892F
:1028340023F40053FB817B881B039AB2FB89134367
:10284400FB817B68FA891A8400BF1437BD4680BCBB
:10285400704700BF80B485B000AF78600B467B80C2
:1028640013463B800023FB817B88012202FA03F399
:10287400FB817B681B8C9AB2FB89DB439BB21340C0
:102884009AB27B681A847B681B8C9AB239887B88DD
:1028940001FA03F39BB213439AB27B681A8400BF14
:1028A4001437BD4680BC704780B485B000AF7860F3
:1028B4000B467B8013463B800023FB817B880422EC
:1028C40002FA03F3FB817B681B8C9AB2FB89DB431E
:1028D4009BB213409AB27B681A847B681B8C9AB2B1
:1028E40039887B8801FA03F39BB213439AB27B685D
:1028F4001A8400BF1437BD4680BC704780B485B0CD
:1029040000AF78600B467B8013463B800023FB605E
:1029140000237B817B68FB60FB681833FB607B884A
:10292400012202FA03F37B817B681B8C9AB27B89B8
:10293400DB439BB213409AB27B681A847B88002BDA
:1029440002D07B88082B13D17B885B089BB21A4684
:10295400FB681344FB60FB68FA68126822F070029B
:102964001A60FB68FA6811683A880A431A6016E02C
:102974007B88043B9BB25B089BB21A46FB681344FA
:10298400FB60FB68FA68126822F4E0421A60FB6894
:10299400FA6812683988090289B20A431A6000BFCA
:1029A4001437BD4680BC704780B483B000AF7860F4
:1029B4000B46FB70FB78002B08D07B681B889BB20E
:1029C40043F002039AB27B681A8007E07B681B8895
:1029D4009BB223F002039AB27B681A8000BF0C37C3
:1029E400BD4680BC704700BF80B483B000AF786040
:1029F4000B467B807B88002B08D07B681B889BB2AE
:102A040043F004039AB27B681A8007E07B681B8852
:102A14009BB223F004039AB27B681A8000BF0C3780
:102A2400BD4680BC704700BF80B483B000AF7860FF
:102A34000B46FB70FB78002B08D07B689B889BB20D
:102A440043F080039AB27B689A8007E07B689B8896
:102A54009BB223F080039AB27B689A8000BF0C3744
:102A6400BD4680BC704700BF80B483B000AF7860BF
:102A74000B467B807B681B889BB223F008039AB2C9
:102A84007B681A807B681B889AB27B8813439AB24E
:102A94007B681A8000BF0C37BD4680BC704700BFFE
:102AA40080B483B000AF78600B467B807B689B88E2
:102AB4009BB223F070039AB27B689A807B689B88F0
:102AC4009AB27B8813439AB27B689A8000BF0C3712
:102AD400BD4680BC704700BF80B483B000AF78604F
:102AE4000B467B807B681B899BB223F007039AB259
:102AF4007B681A817B681B899AB27B8813439AB2DC
:102B04007B681A8100BF0C37BD4680BC704700BF8C
:102B140080B483B000AF78600B467B807B681B89F0
:102B24009BB223F080039AB27B681A817B681B896D
:102B34009AB27B8813439AB27B681A8100BF0C3720
:102B4400BD4680BC704700BF80B483B000AF7860DE
:102B54000B467B807B687A889A8400BF0C37BD461D
:102B640080BC704780B483B000AF78600B467B8034
:102B74007B687A889A8500BF0C37BD4680BC704755
:102B840080B483B000AF78600B467B807B687A8822
:102B94009A8600BF0C37BD4680BC704780B483B0B2
:102BA40000AF78600B467B807B687A881A8700BF09
:102BB4000C37BD4680BC704780B483B000AF7860EA
:102BC4000B467B807B687A889A8700BF0C37BD46AA
:102BD40080BC704780B483B000AF78600B467B80C4
:102BE4007B687A88A3F8402000BF0C37BD4680BCC0
:102BF400704700BF80B483B000AF78600B467B8021
:102C04007B681B8B9BB223F00C039AB27B681A83FC
:102C14007B681B8B9AB27B8813439AB27B681A83B6
:102C240000BF0C37BD4680BC704700BF80B483B082
:102C340000AF78600B467B807B681B8B9BB223F4D0
:102C440040639AB27B681A837B681B8B9AB27B8839
:102C54001B029BB213439AB27B681A8300BF0C37E2
:102C6400BD4680BC704700BF80B483B000AF7860BD
:102C74000B467B807B689B8B9BB223F00C039AB240
:102C84007B689A837B689B8B9AB27B8813439AB246
:102C94007B689A8300BF0C37BD4680BC704700BF79
:102CA40080B483B000AF78600B467B807B689B8BDD
:102CB4009BB223F440639AB27B689A837B689B8BB4
:102CC4009AB27B881B029BB213439AB27B689A83A5
:102CD40000BF0C37BD4680BC704700BF80B483B0D2
:102CE40000AF78600B467B807B681B889BB223F423
:102CF40040739AB27B681A807B681B889AB27B887F
:102D040013439AB27B681A8000BF0C37BD4680BC5F
:102D1400704700BF80B483B000AF78607B689B8E3F
:102D24009BB218460C37BD4680BC704780B483B054
:102D340000AF78607B681B8F9BB218460C37BD468A
:102D440080BC704780B483B000AF78607B689B8F91
:102D54009BB218460C37BD4680BC704780B483B024
:102D640000AF78607B68B3F840309BB218460C37EC
:102D7400BD4680BC704700BF80B483B000AF7860AC
:102D84007B689B8C9BB218460C37BD4680BC704751
:102D940080B483B000AF78607B681B8D9BB218460B
:102DA4000C37BD4680BC704780B485B000AF7860F6
:102DB4000B467B800023FB737B681B8A9AB27B885B
:102DC40013409BB2002B02D00123FB7301E00023CC
:102DD400FB73FB7B18461437BD4680BC704700BFAD
:102DE40080B483B000AF78600B467B807B88DB4384
:102DF4009AB27B681A8200BF0C37BD4680BC70470C
:102E040080B485B000AF78600B467B800023FB73F1
:102E14000023BB8100237B817B681B8A9AB27B8859
:102E24001340BB817B689B899AB27B8813407B816A
:102E3400BB89002B05D07B89002B02D00123FB73B7
:102E440001E00023FB73FB7B18461437BD4680BCAE
:102E5400704700BF80B483B000AF78600B467B80BE
:102E64007B88DB439AB27B681A8200BF0C37BD466D
:102E740080BC704780B487B000AFF8600846114644
:102E84001A4603467B810B463B811346FB80002395
:102E9400BB820023FB82FB681B8C9BB223F00103E3
:102EA4009AB2FB681A84FB681B8BBB82FB681B8C81
:102EB400FB82BB8A23F0F303BB82FB881B019AB21B
:102EC4003B8913439AB2BB8A1343BB82FB681C4AF7
:102ED400934213D0FB681B4A93420FD0FB68B3F1B3
:102EE400804F0BD0FB68184A934207D0FB68174AFF
:102EF400934203D0FB68164A93420BD1FB8A23F01A
:102F04000203FB827A89FB8A13439BB243F00103D9
:102F1400FB820AE0FB8A23F00A03FB827A89FB8A9C
:102F240013439BB243F00103FB82FB68BA8A1A8302
:102F3400FB68FA8A1A8400BF1C37BD4680BC704700
:102F4400002C01400034014000040040000800400F
:102F5400000C004080B487B000AFF860084611460A
:102F64001A4603467B810B463B811346FB800023B4
:102F7400BB820023FB8200237B82FB681B8C9BB2F9
:102F840023F010039AB2FB681A84FB681B8BBB8284
:102F9400FB681B8CFB827B891B017B82BB8A23F42D
:102FA40040731B051B0DBB82FB881B039AB2BB8AB3
:102FB4001343BB823B891B029AB2BB8A1343BB8275
:102FC400FB681C4A934213D0FB681B4A93420FD000
:102FD400FB68B3F1804F0BD0FB68184A934207D0CB
:102FE400FB68174A934203D0FB68164A93420BD1FD
:102FF400FB8A23F02003FB827A8AFB8A13439BB269
:1030040043F01003FB820AE0FB8A23F0A003FB8257
:103014007A89FB8A13439BB243F01003FB82FB685B
:10302400BA8A1A83FB68FA8A1A8400BF1C37BD4621
:1030340080BC7047002C0140003401400004004073
:1030440000080040000C004080B487B000AFF86076
:10305400084611461A4603467B810B463B811346BC
:10306400FB800023BB820023FB8200237B82FB685E
:103074001B8C9BB223F480739AB2FB681A84FB689E
:103084009B8BBB82FB681B8CFB827B891B027B8234
:10309400BB8A23F0F303BB82FB881B019AB23B89F2
:1030A40013439AB2BB8A1343BB82FB681C4A934204
:1030B40013D0FB681B4A93420FD0FB68B3F1804FD7
:1030C4000BD0FB68184A934207D0FB68174A934217
:1030D40003D0FB68164A93420BD1FB8A23F4007396
:1030E400FB827A8AFB8A13439BB243F48073FB828C
:1030F4000AE0FB8A23F42063FB827A89FB8A134368
:103104009BB243F48073FB82FB68BA8A9A83FB68A0
:10311400FA8A1A8400BF1C37BD4680BC704700BFC2
:10312400002C01400034014000040040000800402D
:10313400000C004080B487B000AFF8600846114628
:103144001A4603467B810B463B811346FB800023D2
:10315400BB820023FB8200237B82FB681B8C9BB217
:1031640023F480539AB2FB681A84FB689B8BBB825E
:10317400FB681B8CFB827B891B037B82BB8A23F449
:1031840040731B051B0DBB823B891B029AB2BB8A91
:103194001343BB82FB881B039AB2BB8A1343BB82D3
:1031A400FB681D4A934213D0FB681C4A93420FD01C
:1031B400FB68B3F1804F0BD0FB68194A934207D0E8
:1031C400FB68184A934203D0FB68174A93420BD119
:1031D400FB8A23F40053FB827A8AFB8A13439BB253
:1031E40043F48053FB820CE0FB8A23F400735B04FA
:1031F4005B0CFB827A89FB8A13439BB243F48053B2
:10320400FB82FB68BA8A9A83FB68FA8A1A8400BF35
:103214001C37BD4680BC7047002C0140003401407F
:103224000004004000080040000C004080B582B05B
:1032340000AF78607B68264A93420AD101214FF49B
:103244008040FEF713F800214FF48040FEF70EF89B
:103254003AE07B681F4A93420AD101214FF40030BF
:10326400FEF722F800214FF40030FEF71DF82BE0A2
:103274007B68194A93420AD101214FF48020FEF75A
:1032840013F800214FF48020FEF70EF81CE07B6851
:10329400124A93420AD101214FF40020FEF704F8A8
:1032A40000214FF40020FDF7FFFF0DE07B680C4A7E
:1032B400934209D101214FF48010FDF7F5FF00215D
:1032C4004FF48010FDF7F0FF00BF0837BD4680BD06
:1032D400003801400044004000480040004C0040D9
:1032E4000050004080B58CB000AF78603960002396
:1032F400FB620023BB6200237B6200233B6200234A
:10330400FB617B68FB617B681B8A9BB2FB62FA6A88
:103314004CF6FF731340FB623B68DB881A46FB6A7A
:103324001343FB62FB6A9AB27B681A827B689B89AF
:103334009BB2FB62FA6A4EF6F3131340FB623B68DE
:103344009A883B681B8913439AB23B685B89134391
:103354009BB21A46FB6A1343FB62FB6A9AB27B6810
:103364009A817B689B8A9BB2FB62FA6A4FF6FF43A1
:103374001340FB623B689B891A46FB6A1343FB625A
:10338400FB6A9AB27B689A8207F108031846FDF734
:1033940063FEFB692E4A934202D17B69BB6201E062
:1033A4003B69BB627B689B899BB21BB2002B0CDA26
:1033B400BA6A13469B0013449A001A443B681B687C
:1033C4005B00B2FBF3F37B620BE0BA6A13469B002B
:1033D40013449A001A443B681B689B00B2FBF3F346
:1033E4007B627B6A1B4AA2FB03235B091B01FB6212
:1033F400FB6A1B09642202FB03F37A6AD31A3B6259
:103404007B689B899BB21BB2002B0CDA3B6ADB0006
:103414003233104AA2FB03235B0903F00703FA6A61
:103424001343FB620BE03B6A1B013233094AA2FBE4
:1034340003235B0903F00F03FA6A1343FB62FB6A7D
:103444009AB27B681A8100BF3037BD4680BD00BF89
:10345400003801401F85EB5180B483B000AF786021
:103464007B684FF416521A607B6800229A807B684E
:103474000022DA807B6800221A817B680C225A8140
:103484007B6800229A8100BF0C37BD4680BC704720
:1034940080B485B000AF786039600023FB607B683E
:1034A4001B8A9BB2FB60FA684FF2FF031340FB6078
:1034B4003B681A883B685B8813439AB23B689B88D5
:1034C40013439AB23B68DB8813439BB21A46FB68EA
:1034D4001343FB60FB689AB27B681A8200BF1437FF
:1034E400BD4680BC704700BF80B483B000AF786035
:1034F4007B6800221A807B6800225A807B68002245
:103504009A807B680022DA8000BF0C37BD4680BCFD
:10351400704700BF80B483B000AF78600B46FB7087
:10352400FB78002B08D07B689B899BB243F4005343
:103534009AB27B689A8107E07B689B899BB223F4EB
:1035440000539AB27B689A8100BF0C37BD4680BC99
:10355400704700BF80B487B000AF78600B467B80B3
:1035640013467B7000233B610023FB600023BB6098
:1035740000237B617B687B617B88DBB25B09DBB208
:103584003B617B8803F01F03FB600122FB6802FAA6
:1035940003F3BB603B69012B03D17B690C337B6173
:1035A40009E03B69022B03D17B6910337B6102E0A4
:1035B4007B6914337B617B78002B06D07B697A6945
:1035C4001168BA680A431A6006E07B697A6911686F
:1035D400BA68D2430A401A6000BF1C37BD4680BC9B
:1035E400704700BF80B483B000AF78600B467B8027
:1035F40013467B707B78002B08D07B689B8A9AB239
:103604007B8813439AB27B689A8209E07B689B8A21
:103614009AB27B88DB439BB213409AB27B689A824E
:1036240000BF0C37BD4680BC704700BF80B483B078
:1036340000AF78600B46FB707B681B8A9BB223F05B
:103644000F039AB27B681A827B681B8A9AB2FB7852
:103654009BB213439AB27B681A8200BF0C37BD46F3
:1036640080BC704780B483B000AF78600B467B8029
:103674007B689B899BB223F400639AB27B689A812E
:103684007B689B899AB27B8813439AB27B689A8140
:1036940000BF0C37BD4680BC704700BF80B483B008
:1036A40000AF78600B46FB70FB78002B08D07B687A
:1036B4009B899BB243F002039AB27B689A8107E02C
:1036C4007B689B899BB223F002039AB27B689A8140
:1036D40000BF0C37BD4680BC704700BF80B483B0C8
:1036E40000AF78600B467B807B681B8A9BB223F01B
:1036F40020039AB27B681A827B681B8A9AB27B8801
:1037040013439AB27B681A8200BF0C37BD4680BC53
:10371400704700BF80B483B000AF78600B46FB7085
:10372400FB78002B08D07B681B8A9BB243F4804350
:103734009AB27B681A8207E07B681B8A9BB223F4E7
:1037440080439AB27B681A8200BF0C37BD4680BCA6
:10375400704700BF80B483B000AF78600B467B80B5
:103764007B88C3F308039AB27B689A8000BF0C3746
:10377400BD4680BC704700BF80B483B000AF7860A2
:103784007B689B889BB2C3F308039BB218460C3733
:10379400BD4680BC704700BF80B483B000AF786082
:1037A4007B689B899BB243F001039AB27B689A8140
:1037B40000BF0C37BD4680BC704700BF80B483B0E7
:1037C40000AF78600B46FB707B681B8B9BB2DBB24F
:1037D4009AB27B681A837B681B8B9AB2FB789BB284
:1037E4001B029BB213439AB27B681A8300BF0C3747
:1037F400BD4680BC704700BF80B483B000AF786022
:103804000B46FB707B681B8B9BB223F0FF039AB2C1
:103814007B681A837B681B8B9AB2FB789BB2134339
:103824009AB27B681A8300BF0C37BD4680BC7047D0
:1038340080B483B000AF78600B46FB70FB78002B3C
:1038440008D07B689B8A9BB243F020039AB27B68C2
:103854009A8207E07B689B8A9BB223F020039AB28A
:103864007B689A8200BF0C37BD4680BC704700BF9E
:1038740080B483B000AF78600B46FB70FB78002BFC
:1038840008D07B689B8A9BB243F010039AB27B6892
:103894009A8207E07B689B8A9BB223F010039AB25A
:1038A4007B689A8200BF0C37BD4680BC704700BF5E
:1038B40080B483B000AF78600B46FB70FB78002BBC
:1038C40008D07B689B8A9BB243F008039AB27B685A
:1038D4009A8207E07B689B8A9BB223F008039AB222
:1038E4007B689A8200BF0C37BD4680BC704700BF1E
:1038F40080B483B000AF78600B46FB70FB78002B7C
:103904000AD07B689B899BB26FEA43436FEA5343B7
:103914009AB27B689A8107E07B689B899BB2C3F368
:103924000E039AB27B689A8100BF0C37BD4680BCF7
:10393400704700BF80B483B000AF78600B46FB7063
:10394400FB78002B08D07B689B8A9BB243F400630E
:103954009AB27B689A8207E07B689B8A9BB223F4C5
:1039640000639AB27B689A8200BF0C37BD4680BC64
:10397400704700BF80B483B000AF78600B467B8093
:103984007B689B8A9BB223F004039AB27B689A8279
:103994007B689B8A9AB27B8813439AB27B689A822B
:1039A40000BF0C37BD4680BC704700BF80B483B0F5
:1039B40000AF78600B46FB70FB78002B08D07B6867
:1039C4009B8A9BB243F002039AB27B689A8207E017
:1039D4007B689B8A9BB223F002039AB27B689A822B
:1039E40000BF0C37BD4680BC704700BF80B485B0B3
:1039F40000AF78600B467B800023FB737B681B88D9
:103A04009AB27B8813409BB2002B02D00123FB7334
:103A140001E00023FB73FB7B18461437BD4680BCD2
:103A2400704700BF80B483B000AF78600B467B80E2
:103A34007B88DB439AB27B681A8000BF0C37BD4693
:103A440080BC704780B487B000AF78600B467B8041
:103A54000023FB6000237B610023BB600023FB7415
:103A64007B88DBB25B09DBB2BB607B8803F01F039E
:103A74007B6101227B6902FA03F37B61BB68012B42
:103A840007D17B689B899BB21A467B6913407B6193
:103A940011E0BB68022B07D17B681B8A9BB21A46D4
:103AA4007B6913407B6106E07B689B8A9BB21A4664
:103AB4007B6913407B617B881B0A9BB2FB600122FC
:103AC400FB6802FA03F3FB607B681B889BB21A460F
:103AD400FB681340FB607B69002B05D0FB68002B5F
:103AE40002D00123FB7401E00023FB74FB7C184625
:103AF4001C37BD4680BC704780B485B000AF786089
:103B04000B467B800023FB810023BB817B881B0A3F
:103B1400FB81FB89012202FA03F3BB81BB89DB43EE
:103B24009AB27B681A8000BF1437BD4680BC7047C8
:103B340080B586B000AF03460A46FB801346BB80BF
:103B440001210220FDF774FBFB883B82BB88BB810B
:103B540000237B820023FB8107F10C0319460E48E6
:103B6400FDF778FD012201210B48FEF781F91D23A1
:103B74003B7200237B720323BB720123FB7207F1A8
:103B840008031846FCF7C0FC01210348FEF72AF994
:103B940000BF1837BD4680BD0004004080B500AFAB
:103BA40001210A48FFF72CF90346002B0CD0012110
:103BB4000648FFF74FF9064A054B1B68002B0CBF5C
:103BC40001230023DBB2136000BF80BD000400406A
:103BD4009401234280B58AB000AF03460A46FB80B5
:103BE4001346BB8001210220FDF722FB012109209D
:103BF400FDF700FB01211B48FCF76EFF2023BB846B
:103C0400182387F82730032387F8263007F1240385
:103C140019461548FCF7AAFDFB88BB83BB883B8388
:103C24000023FB8300237B8307F1180319460F4805
:103C3400FDF710FD70233B8101237B8100233B8230
:103C440007F1080319460948FDF70CFE0821074847
:103C5400FEF7F2FB01210548FEF7C4F800BF283740
:103C6400BD4680BD00081A00000C0140000400405D
:103C740080B400AF00BFBD4680BC704780B400AFC5
:103C8400FEE700BF80B400AFFEE700BF80B400AF22
:103C9400FEE700BF80B400AFFEE700BF80B400AF12
:103CA40000BFBD4680BC704780B400AF00BFBD46B6
:103CB40080BC704780B400AF00BFBD4680BC704775
:103CC40080B400AF00BFBD4680BC704780B500AF74
:103CD400002140F2CF2000F09FF80023184680BD59
:103CE40080B500AF00F0B6F8FCF7A8FA094B012242
:103CF4001A60094B01221A60642000F005F9054B93
:103D040000221A60044B00221A60642000F0FCF8C0
:103D1400ECE700BF948121429401234280B500AFB7
:103D240000F098F800F024F94FF480710748FCF78C
:103D340039FE642000F0E8F84FF480710348FCF782
:103D44003FFE642000F0E0F8EEE700BF000C014005
:103D540080B582B000AF0023FB7100F07BF8FCF764
:103D64006DFA00F023F900F003F9284B00221A60E1
:103D7400002000F03DF90346FB71FB79002B40D095
:103D8400FB79013B032B3CD801A252F823F000BF7E
:103D9400A53D0008B93D0008CD3D0008F33D0008ED
:103DA4001A4A1A4B1B68002B0CBF01230023DBB2F9
:103DB400136026E0164A164B1B68002B0CBF012328
:103DC4000023DBB213601CE0104A104B1B68002B6D
:103DD4000CBF01230023DBB213600D4A0C4B1B689C
:103DE400002B0CBF01230023DBB2136009E0094A56
:103DF400084B1B68002B0CBF01230023DBB21360AC
:103E040000BF642000F080F8B2E700BF9481214233
:103E140094012342A081214280B584B000AF0346BF
:103E24000A46FB801346BB804FF41073FB8100F0FD
:103E340011F8FB8800211846FFF7CCFEFB891946D0
:103E44000348FEF7ABFE00BF1037BD4680BD00BF80
:103E54000004004080B500AF6FF00400FCF7ECFBF9
:103E64000B4B1B680B4AA2FB03235B0DDAB20A4B14
:103E74001A70094B1B789BB21A465201D21A92004F
:103E84001344DB009AB2054B1A8000BF80BD00BF0B
:103E94000000002083DE1B43480000204A0000206D
:103EA40080B485B000AF7860154A164B1B7819466C
:103EB4007B6803FB01F35360114B00229A60104AA4
:103EC4000F4B1B6843F0010313600D4B1B68FB6031
:103ED400FB6803F00103002B04D0FB6803F4803378
:103EE400002BF2D0064A064B1B6823F00103136033
:103EF400034B00229A6000BF1437BD4680BC704754
:103F040010E000E04800002080B485B000AF034614
:103F1400FB80154AFB881549098801FB03F35360AC
:103F2400114B00229A60104A0F4B1B6843F00103A7
:103F340013600D4B1B68FB60FB6803F00103002B4F
:103F440004D0FB6803F48033002BF2D0064A064BFE
:103F54001B6823F001031360034B00229A6000BF27
:103F64001437BD4680BC704710E000E04A000020D2
:103F740080B582B000AF01210820FDF73BF94FF472
:103F84008073BB801023FB710323BB713B1D194657
:103F94000548FCF7EBFB4FF480710348FCF710FD78
:103FA40000BF0837BD4680BD000C014080B582B01B
:103FB40000AF01214420FDF71DF91C23BB804823D9
:103FC400FB713B1D19460848FCF7D0FB0123BB805D
:103FD4002823FB713B1D19460448FCF7C7FB00BFAF
:103FE4000837BD4680BD00BF0018014000080140ED
:103FF40080B582B000AF0346FB71FB79002B02D081
:10400400394B01221A70384B1B78002B45D01021F4
:104014003648FCF77BFC0346002B14D008213348B8
:10402400FCF774FC0346002B0DD004212F48FCF749
:104034006DFC0346002B06D001212D48FCF766FCDD
:104044000346012B29D10520FFF75EFF264B0022F2
:104054001A7010212548FCF759FC0346002B01D1A6
:1040640001233CE008212148FCF750FC0346002BC7
:1040740001D1022333E004211C48FCF747FC03462A
:10408400002B01D103232AE001211948FCF73EFC4F
:104094000346012B21D1042321E010211348FCF70E
:1040A40035FC0346012B19D108211048FCF72EFCDE
:1040B4000346012B12D104210C48FCF727FC0346CC
:1040C400012B0BD101210A48FCF720FC0346002BED
:1040D40004D1054B01221A7000E000BF00231846EA
:1040E4000837BD4680BD00BF2800002000180140ED
:1040F4000008014080B586B000AF012144F20400FD
:10410400FDF778F84FF40073BB821823FB75032383
:10411400BB7507F1140319461D48FCF727FB4FF440
:104124008063BB820423FB7507F114031946184806
:10413400FCF71CFB4FF4E1337B6000233B8100233D
:104144007B814FF4C063BB810C23FB8100233B8242
:104154003B1D19460F48FFF7C5F825233B70032381
:104164007B700323BB700123FB703B461846FCF7AE
:10417400CBF9012240F225510648FFF7EBF9012162
:104184000448FFF7C7F900BF1837BD4680BD00BF1C
:10419400000801400038014080B582B000AF40F211
:1041A40025510A48FFF74EFC0346002B0AD0074866
:1041B400FFF7E2FA0346FB71FB799BB21946034809
:1041C400FFF7C8FA00BF0837BD4680BD003801407C
:1041D400002103E00A4B5B584350043109480A4B61
:1041E40042189A42F6D3094A02E0002342F8043BFB
:1041F400074B9A42F9D3FCF74FF8FFF767FD704776
:104204003C420008000000202C0000202C0000206C
:104214004C000020FEE70000F8B500BFF8BC08BC65
:104224009E467047F8B500BFF8BC08BC9E46704770
:044234000902000873
:04423800E501000894
:10423C0000A24A0400000000000000000102030478
:10424C000607080900000000010203040102030430
:0C425C0006070809020406080100000023
:04000005080041D5D9
:00000001FF
